S019000043616C63756C6174657250726F6A6563742E7372656334
S11300000C942A000C942A020C9453020C947C0243
S11300100C9447000C9447000C9447000C94470040
S11300200C9447000C9447000C94CE020C94A50247
S11300300C9447000C94F7020C9447000C94200392
S11300400C9447000C9447000C9447000C94470010
S11300500C94470011241FBECFE5D8E0DEBFCDBF0E
S113006010E0A0E6B0E0E6E9F6E002C005900D92EB
S1130070A639B107D9F720E0A6E9B0E001C01D9286
S1130080A43AB207E1F70E949C010C9449030C9432
S1130090000080E690E00E941A0280937C0084E6CF
S11300A090E00E94D60080937C0025E041E06DE85A
S11300B070E084E690E00E946B0180937C002FEF57
S11300C083ED90E3215080409040E1F700C00000B0
S11300D061E084E690E00E94B60080937C002FEFFC
S11300E081EE94E0215080409040E1F700C0000090
S11300F0DCCF0F931F93CF930097E1F0C62F8C01B1
S1130100617008960E94DB01C1FB662760F9C80193
S11301100C960E94DB01C2FB662760F9C801409679
S11301200E94DB01C3FB662760F9C80144960E9464
S1130130DB0101C080E0CF911F910F910895CF930F
S1130140DF93009779F0EC01249661E0CE010E94E0
S1130150DB018AE18A95F1F700C060E0CE010E94DC
S1130160DB0101C080E0DF91CF9108951F93CF930D
S1130170DF930097B1F0162FEC0160E00E94DB01E1
S1130180612F62956F70CE010E947900CE010E94AA
S11301909F00612FCE010E947900CE010E949F0032
S11301A001C080E0DF91CF911F910895CF93DF9339
S11301B0009709F451C0EC0104960E941A02CE0182
S11301C00E941A02CE0108960E941A02CE010C96D1
S11301D00E941A02CE0140960E941A02CE01449651
S11301E00E941A022FEF89EF90E021508040904046
S11301F0E1F700C0000068E3CE010E94B6008FE181
S11302009EE40197F1F700C0000068E3CE010E946C
S1130210B60087E592E00197F1F700C0000068E3BB
S1130220CE010E94B60061E0CE010E94B60062E0F9
S1130230CE010E94B60066E0CE010E94B6006CE0DA
S1130240CE010E94B60068E2CE010E94B60060E8CA
S1130250CE010E94B60001C080E0DF91CF910895E5
S11302601F93CF93DF930097B1F0162FEC0161E059
S11302700E94DB01612F62956F70CE010E947900AC
S1130280CE010E949F00612FCE010E947900CE0111
S11302900E949F0001C080E0DF91CF911F910895DB
S11302A00F931F93CF93DF93EB01009761F0688165
S11302B0662359F08C012196C8010E94300169918E
S11302C06111FACF03C080E001C081E0DF91CF91DA
S11302D01F910F9108950F931F93CF93DF9300976E
S11302E029F18B01EC01423071F018F4413031F006
S11302F018C0433069F0443081F013C06FE7620FD7
S11303000E94B6000EC06FEB620F0E94B60009C0D7
S113031063E9620F0E94B60004C063ED620F0E949D
S1130320B600B801CE010E94500101C080E0DF9107
S1130330CF911F910F9108950E94490080E090E0B1
S11303400895FC01892B99F18281882319F0813069
S1130350B9F02FC0A081B0E0AA0FBB1FAB57BF4FAD
S11303600D90BC91A02D2C9181E090E0018002C001
S1130370880F991F0A94E2F7822B8C9381E00895E9
S1130380A081B0E0AA0FBB1FAB57BF4F0D90BC912B
S1130390A02D2C9181E090E0018002C0880F991F6C
S11303A00A94E2F7809582238C9381E0089580E09B
S11303B0089580E008950097C9F16623E1F0613063
S11303C0B9F5DC01EC91F0E0EE0FFF1FE358FF4FAD
S11303D00190F081E02D408121E030E0B9011196D7
S11303E00C9002C0660F771F0A94E2F7CB01842BAE
S11303F0808381E00895DC01EC91F0E0EE0FFF1FB3
S1130400E358FF4F0190F081E02D408121E030E07E
S1130410B90111960C9002C0660F771F0A94E2F797
S1130420CB0180958423808381E0089580E0089542
S113043080E00895CF93DF93009741F0EC010E9490
S1130440A1016B81CE010E94DB0101C080E0DF913C
S1130450CF9108951F920F920FB60F9211242F93EC
S11304603F934F935F936F937F938F939F93AF9338
S1130470BF93EF93FF93E0919A00F0919B00309724
S113048009F00995FF91EF91BF91AF919F918F91E1
S11304907F916F915F914F913F912F910F900FBE7C
S11304A00F901F9018951F920F920FB60F92112460
S11304B02F933F934F935F936F937F938F939F9368
S11304C0AF93BF93EF93FF93E0919800F09199005D
S11304D0309709F00995FF91EF91BF91AF919F91EA
S11304E08F917F916F915F914F913F912F910F90D9
S11304F00FBE0F901F9018951F920F920FB60F9278
S113050011242F933F934F935F936F937F938F9314
S11305109F93AF93BF93EF93FF93E0919600F09175
S11305209700309709F00995FF91EF91BF91AF9132
S11305309F918F917F916F915F914F913F912F91F7
S11305400F900FBE0F901F9018951F920F920FB629
S11305500F9211242F933F934F935F936F937F9345
S11305608F939F93AF93BF93EF93FF93E0919E007C
S1130570F0919F00309709F00995FF91EF91BF9199
S1130580AF919F918F917F916F915F914F913F9127
S11305902F910F900FBE0F901F9018951F920F92DE
S11305A00FB60F9211242F933F934F935F936F9342
S11305B07F938F939F93AF93BF93EF93FF93E091B8
S11305C09C00F0919D00309709F00995FF91EF91FF
S11305D0BF91AF919F918F917F916F915F914F9157
S11305E03F912F910F900FBE0F901F9018951F925F
S11305F00F920FB60F9211242F933F934F935F9353
S11306006F937F938F939F93AF93BF93EF93FF93D6
S1130610E091A200F091A300309709F00995FF91B1
S1130620EF91BF91AF919F918F917F916F915F9166
S11306304F913F912F910F900FBE0F901F901895DF
S11306401F920F920FB60F9211242F933F934F9343
S11306505F936F937F938F939F93AF93BF93EF9326
S1130660FF93E091A000F091A100309709F0099563
S1130670FF91EF91BF91AF919F918F917F916F9176
S11306805F914F913F912F910F900FBE0F901F904C
S10906901895F894FFCF59
S11306960102000001010000010300000004000043
S11306A6000500000006000000070000013B0038BA
S11306B600350032003A0037003400310057656CCB
S10906C6636F6D652E0058
S9030000FC
